{
  "contractName": "Channels",
  "abi": [
    {
      "constant": true,
      "inputs": [
        {
          "name": "h",
          "type": "bytes32[4]"
        },
        {
          "name": "v",
          "type": "uint8"
        },
        {
          "name": "value",
          "type": "uint256"
        },
        {
          "name": "challenge",
          "type": "uint256"
        }
      ],
      "name": "verifyMsg",
      "outputs": [
        {
          "name": "",
          "type": "bool"
        }
      ],
      "payable": false,
      "stateMutability": "view",
      "type": "function"
    },
    {
      "constant": true,
      "inputs": [
        {
          "name": "id",
          "type": "bytes32"
        },
        {
          "name": "v",
          "type": "uint8"
        },
        {
          "name": "value",
          "type": "uint256"
        },
        {
          "name": "nonce",
          "type": "uint256"
        }
      ],
      "name": "getChannelRemainingChallengePeriod",
      "outputs": [
        {
          "name": "",
          "type": "uint256"
        }
      ],
      "payable": false,
      "stateMutability": "view",
      "type": "function"
    },
    {
      "constant": false,
      "inputs": [
        {
          "name": "h",
          "type": "bytes32[4]"
        },
        {
          "name": "v",
          "type": "uint8"
        },
        {
          "name": "value",
          "type": "uint256"
        },
        {
          "name": "nonce",
          "type": "uint256"
        }
      ],
      "name": "closeChannel",
      "outputs": [],
      "payable": false,
      "stateMutability": "nonpayable",
      "type": "function"
    },
    {
      "constant": true,
      "inputs": [
        {
          "name": "sender",
          "type": "address"
        },
        {
          "name": "recipient",
          "type": "address"
        },
        {
          "name": "amount",
          "type": "uint256"
        },
        {
          "name": "challenge",
          "type": "uint256"
        }
      ],
      "name": "getChannelId",
      "outputs": [
        {
          "name": "",
          "type": "bytes32"
        }
      ],
      "payable": false,
      "stateMutability": "view",
      "type": "function"
    },
    {
      "constant": true,
      "inputs": [
        {
          "name": "id",
          "type": "bytes32"
        },
        {
          "name": "v",
          "type": "uint8"
        },
        {
          "name": "value",
          "type": "uint256"
        },
        {
          "name": "nonce",
          "type": "uint256"
        }
      ],
      "name": "getChannel",
      "outputs": [
        {
          "name": "sender",
          "type": "address"
        },
        {
          "name": "recipient",
          "type": "address"
        },
        {
          "name": "deposit",
          "type": "uint256"
        },
        {
          "name": "token",
          "type": "address"
        },
        {
          "name": "state",
          "type": "uint8"
        }
      ],
      "payable": false,
      "stateMutability": "view",
      "type": "function"
    },
    {
      "constant": false,
      "inputs": [
        {
          "name": "id",
          "type": "bytes32"
        }
      ],
      "name": "finalize",
      "outputs": [],
      "payable": false,
      "stateMutability": "nonpayable",
      "type": "function"
    },
    {
      "constant": true,
      "inputs": [
        {
          "name": "id",
          "type": "bytes32"
        }
      ],
      "name": "getChannelStatus",
      "outputs": [
        {
          "name": "",
          "type": "uint8"
        }
      ],
      "payable": false,
      "stateMutability": "view",
      "type": "function"
    },
    {
      "constant": false,
      "inputs": [
        {
          "name": "token",
          "type": "address"
        },
        {
          "name": "recipient",
          "type": "address"
        },
        {
          "name": "amount",
          "type": "uint256"
        },
        {
          "name": "challenge",
          "type": "uint256"
        }
      ],
      "name": "openChannel",
      "outputs": [],
      "payable": true,
      "stateMutability": "payable",
      "type": "function"
    },
    {
      "constant": false,
      "inputs": [
        {
          "name": "h",
          "type": "bytes32[4]"
        },
        {
          "name": "v",
          "type": "uint8"
        },
        {
          "name": "value",
          "type": "uint256"
        },
        {
          "name": "nonce",
          "type": "uint256"
        }
      ],
      "name": "challenge",
      "outputs": [],
      "payable": false,
      "stateMutability": "nonpayable",
      "type": "function"
    },
    {
      "anonymous": false,
      "inputs": [
        {
          "indexed": false,
          "name": "id",
          "type": "bytes32"
        }
      ],
      "name": "ChannelOpened",
      "type": "event"
    },
    {
      "anonymous": false,
      "inputs": [
        {
          "indexed": false,
          "name": "id",
          "type": "bytes32"
        },
        {
          "indexed": false,
          "name": "withChallengePeriod",
          "type": "uint256"
        }
      ],
      "name": "ChannelClosed",
      "type": "event"
    },
    {
      "anonymous": false,
      "inputs": [
        {
          "indexed": false,
          "name": "id",
          "type": "bytes32"
        },
        {
          "indexed": false,
          "name": "by",
          "type": "address"
        },
        {
          "indexed": false,
          "name": "value",
          "type": "uint256"
        }
      ],
      "name": "ChannelChallenged",
      "type": "event"
    },
    {
      "anonymous": false,
      "inputs": [
        {
          "indexed": false,
          "name": "id",
          "type": "bytes32"
        },
        {
          "indexed": false,
          "name": "by",
          "type": "address"
        },
        {
          "indexed": false,
          "name": "value",
          "type": "uint256"
        }
      ],
      "name": "ChannelFinalized",
      "type": "event"
    }
  ],
  "bytecode": "0x6060604052341561000f57600080fd5b611e758061001e6000396000f300606060405260043610610099576000357c0100000000000000000000000000000000000000000000000000000000900463ffffffff1680633a48eb921461009e57806349763faf146101115780636f25bb0c1461014c5780637b0aed3d146101b0578063831c2b821461022457806392584d801461030d578063cc0b94b714610334578063d8d9965a1461037d578063fc1be85d146103dc575b600080fd5b34156100a957600080fd5b6100f76004808060800190600480602002604051908101604052809291908260046020028082843782019150505050509190803560ff16906020019091908035906020019091905050610440565b604051808215151515815260200191505060405180910390f35b341561011c57600080fd5b610136600480803560001916906020019091905050610691565b6040518082815260200191505060405180910390f35b341561015757600080fd5b6101ae6004808060800190600480602002604051908101604052809291908260046020028082843782019150505050509190803560ff1690602001909190803590602001909190803590602001909190505061078b565b005b34156101bb57600080fd5b610206600480803573ffffffffffffffffffffffffffffffffffffffff1690602001909190803573ffffffffffffffffffffffffffffffffffffffff16906020019091905050610d35565b60405180826000191660001916815260200191505060405180910390f35b341561022f57600080fd5b610249600480803560001916906020019091905050610dbc565b604051808673ffffffffffffffffffffffffffffffffffffffff1673ffffffffffffffffffffffffffffffffffffffff1681526020018573ffffffffffffffffffffffffffffffffffffffff1673ffffffffffffffffffffffffffffffffffffffff1681526020018481526020018373ffffffffffffffffffffffffffffffffffffffff1673ffffffffffffffffffffffffffffffffffffffff1681526020018260028111156102f557fe5b60ff1681526020019550505050505060405180910390f35b341561031857600080fd5b610332600480803560001916906020019091905050610fb5565b005b341561033f57600080fd5b6103596004808035600019169060200190919050506114ee565b6040518082600281111561036957fe5b60ff16815260200191505060405180910390f35b6103da600480803573ffffffffffffffffffffffffffffffffffffffff1690602001909190803573ffffffffffffffffffffffffffffffffffffffff16906020019091908035906020019091908035906020019091905050611553565b005b34156103e757600080fd5b61043e6004808060800190600480602002604051908101604052809291908260046020028082843782019150505050509190803560ff16906020019091908035906020019091908035906020019091905050611aed565b005b600080600085600060048110151561045457fe5b60200201516000600160008360001916600019168152602001908152602001600020600301541415151561048757600080fd5b600187600160048110151561049857fe5b6020020151878960026004811015156104ad57fe5b60200201518a60036004811015156104c157fe5b6020020151604051600081526020016040526000604051602001526040518085600019166000191681526020018460ff1660ff16815260200183600019166000191681526020018260001916600019168152602001945050505050602060405160208103908084039060008661646e5a03f1151561053e57600080fd5b50506020604051035192506001600088600060048110151561055c57fe5b60200201516000191660001916815260200190815260200160002060000160009054906101000a900473ffffffffffffffffffffffffffffffffffffffff1673ffffffffffffffffffffffffffffffffffffffff168373ffffffffffffffffffffffffffffffffffffffff161415156105d85760009350610687565b8660006004811015156105e757fe5b602002015185604051808360001916600019168152602001828152602001925050506040518091039020915086600160048110151561062257fe5b60200201516000191682600019161415156106405760009350610687565b6001600088600060048110151561065357fe5b602002015160001916600019168152602001908152602001600020600301548511156106825760009350610687565b600193505b5050509392505050565b600081600060016000836000191660001916815260200190815260200160002060030154141515156106c257600080fd5b60006001600085600019166000191681526020019081526020016000206006015414156106f25760009150610785565b4260016000856000191660001916815260200190815260200160002060040154600160008660001916600019168152602001908152602001600020600601540110156107415760009150610785565b426001600085600019166000191681526020019081526020016000206004015460016000866000191660001916815260200190815260200160002060060154010391505b50919050565b60008085600060048110151561079d57fe5b6020020151600060016000836000191660001916815260200190815260200160002060030154141515156107d057600080fd5b8660006004811015156107df57fe5b60200201516002808111156107f057fe5b60016000836000191660001916815260200190815260200160002060080160009054906101000a900460ff16600281111561082757fe5b1415151561083457600080fd5b6001600089600060048110151561084757fe5b60200201516000191660001916815260200190815260200160002093503373ffffffffffffffffffffffffffffffffffffffff168460010160009054906101000a900473ffffffffffffffffffffffffffffffffffffffff1673ffffffffffffffffffffffffffffffffffffffff161415156108c257600080fd5b6108cd888888610440565b15156108d857600080fd5b600084600401541415610c89578360020160009054906101000a900473ffffffffffffffffffffffffffffffffffffffff1692508273ffffffffffffffffffffffffffffffffffffffff1663a9059cbb8560010160009054906101000a900473ffffffffffffffffffffffffffffffffffffffff1686600701546000604051602001526040518363ffffffff167c0100000000000000000000000000000000000000000000000000000000028152600401808373ffffffffffffffffffffffffffffffffffffffff1673ffffffffffffffffffffffffffffffffffffffff16815260200182815260200192505050602060405180830381600087803b15156109df57600080fd5b6102c65a03f115156109f057600080fd5b505050604051805190501515610a0557600080fd5b8273ffffffffffffffffffffffffffffffffffffffff1663a9059cbb8560000160009054906101000a900473ffffffffffffffffffffffffffffffffffffffff1686600701548760030154036000604051602001526040518363ffffffff167c0100000000000000000000000000000000000000000000000000000000028152600401808373ffffffffffffffffffffffffffffffffffffffff1673ffffffffffffffffffffffffffffffffffffffff16815260200182815260200192505050602060405180830381600087803b1515610ade57600080fd5b6102c65a03f11515610aef57600080fd5b505050604051805190501515610b0457600080fd5b60028460080160006101000a81548160ff02191690836002811115610b2557fe5b0217905550600260008560000160009054906101000a900473ffffffffffffffffffffffffffffffffffffffff1673ffffffffffffffffffffffffffffffffffffffff1673ffffffffffffffffffffffffffffffffffffffff16815260200190815260200160002060008560010160009054906101000a900473ffffffffffffffffffffffffffffffffffffffff1673ffffffffffffffffffffffffffffffffffffffff1673ffffffffffffffffffffffffffffffffffffffff168152602001908152602001600020600090557f97f1d440ca7bfb9a7ee6de8b396dd4a31f96fd2d116a43da50d1562170a182e2886000600481101515610c2257fe5b60200201513386600701546040518084600019166000191681526020018373ffffffffffffffffffffffffffffffffffffffff1673ffffffffffffffffffffffffffffffffffffffff168152602001828152602001935050505060405180910390a1610d2b565b84846005018190555085846007018190555042846006018190555060018460080160006101000a81548160ff02191690836002811115610cc557fe5b02179055507f74e9aa18d6bb2c4887e76896296ce0a296a2e8315bb319b08b7607ff92fbef79886000600481101515610cfa57fe5b6020020151856004015442016040518083600019166000191681526020018281526020019250505060405180910390a15b5050505050505050565b6000600260008473ffffffffffffffffffffffffffffffffffffffff1673ffffffffffffffffffffffffffffffffffffffff16815260200190815260200160002060008373ffffffffffffffffffffffffffffffffffffffff1673ffffffffffffffffffffffffffffffffffffffff16815260200190815260200160002054905092915050565b6000806000806000610dcc611daf565b8660006001600083600019166000191681526020019081526020016000206003015414151515610dfb57600080fd5b60016000896000191660001916815260200190815260200160002061012060405190810160405290816000820160009054906101000a900473ffffffffffffffffffffffffffffffffffffffff1673ffffffffffffffffffffffffffffffffffffffff1673ffffffffffffffffffffffffffffffffffffffff1681526020016001820160009054906101000a900473ffffffffffffffffffffffffffffffffffffffff1673ffffffffffffffffffffffffffffffffffffffff1673ffffffffffffffffffffffffffffffffffffffff1681526020016002820160009054906101000a900473ffffffffffffffffffffffffffffffffffffffff1673ffffffffffffffffffffffffffffffffffffffff1673ffffffffffffffffffffffffffffffffffffffff16815260200160038201548152602001600482015481526020016005820154815260200160068201548152602001600782015481526020016008820160009054906101000a900460ff166002811115610f7557fe5b6002811115610f8057fe5b815250509150816000015196508160200151955081606001519450816040015193508161010001519250505091939590929450565b6000808260006001600083600019166000191681526020019081526020016000206003015414151515610fe757600080fd5b83600280811115610ff457fe5b60016000836000191660001916815260200190815260200160002060080160009054906101000a900460ff16600281111561102b57fe5b1415151561103857600080fd5b8460016000826000191660001916815260200190815260200160002060000160009054906101000a900473ffffffffffffffffffffffffffffffffffffffff1673ffffffffffffffffffffffffffffffffffffffff163373ffffffffffffffffffffffffffffffffffffffff16148061111a575060016000826000191660001916815260200190815260200160002060010160009054906101000a900473ffffffffffffffffffffffffffffffffffffffff1673ffffffffffffffffffffffffffffffffffffffff163373ffffffffffffffffffffffffffffffffffffffff16145b151561112557600080fd5b600160008760001916600019168152602001908152602001600020945042856004015486600601540111151561115a57600080fd5b8460020160009054906101000a900473ffffffffffffffffffffffffffffffffffffffff1693508373ffffffffffffffffffffffffffffffffffffffff1663a9059cbb8660010160009054906101000a900473ffffffffffffffffffffffffffffffffffffffff1687600701546000604051602001526040518363ffffffff167c0100000000000000000000000000000000000000000000000000000000028152600401808373ffffffffffffffffffffffffffffffffffffffff1673ffffffffffffffffffffffffffffffffffffffff16815260200182815260200192505050602060405180830381600087803b151561125457600080fd5b6102c65a03f1151561126557600080fd5b50505060405180519050151561127a57600080fd5b8373ffffffffffffffffffffffffffffffffffffffff1663a9059cbb8660000160009054906101000a900473ffffffffffffffffffffffffffffffffffffffff1687600701548860030154036000604051602001526040518363ffffffff167c0100000000000000000000000000000000000000000000000000000000028152600401808373ffffffffffffffffffffffffffffffffffffffff1673ffffffffffffffffffffffffffffffffffffffff16815260200182815260200192505050602060405180830381600087803b151561135357600080fd5b6102c65a03f1151561136457600080fd5b50505060405180519050151561137957600080fd5b60028560080160006101000a81548160ff0219169083600281111561139a57fe5b0217905550600260008660000160009054906101000a900473ffffffffffffffffffffffffffffffffffffffff1673ffffffffffffffffffffffffffffffffffffffff1673ffffffffffffffffffffffffffffffffffffffff16815260200190815260200160002060008660010160009054906101000a900473ffffffffffffffffffffffffffffffffffffffff1673ffffffffffffffffffffffffffffffffffffffff1673ffffffffffffffffffffffffffffffffffffffff168152602001908152602001600020600090557f97f1d440ca7bfb9a7ee6de8b396dd4a31f96fd2d116a43da50d1562170a182e2863387600701546040518084600019166000191681526020018373ffffffffffffffffffffffffffffffffffffffff1673ffffffffffffffffffffffffffffffffffffffff168152602001828152602001935050505060405180910390a1505050505050565b6000816000600160008360001916600019168152602001908152602001600020600301541415151561151f57600080fd5b60016000846000191660001916815260200190815260200160002060080160009054906101000a900460ff16915050919050565b600061155d611daf565b600080851415801561156e57503485145b151561157957600080fd5b3373ffffffffffffffffffffffffffffffffffffffff168673ffffffffffffffffffffffffffffffffffffffff16141515156115b457600080fd5b600060010260001916600260003373ffffffffffffffffffffffffffffffffffffffff1673ffffffffffffffffffffffffffffffffffffffff16815260200190815260200160002060008873ffffffffffffffffffffffffffffffffffffffff1673ffffffffffffffffffffffffffffffffffffffff168152602001908152602001600020546000191614151561164a57600080fd5b338642604051808473ffffffffffffffffffffffffffffffffffffffff1673ffffffffffffffffffffffffffffffffffffffff166c010000000000000000000000000281526014018373ffffffffffffffffffffffffffffffffffffffff1673ffffffffffffffffffffffffffffffffffffffff166c010000000000000000000000000281526014018281526020019350505050604051809103902092503482606001818152505033826000019073ffffffffffffffffffffffffffffffffffffffff16908173ffffffffffffffffffffffffffffffffffffffff168152505085826020019073ffffffffffffffffffffffffffffffffffffffff16908173ffffffffffffffffffffffffffffffffffffffff168152505086826040019073ffffffffffffffffffffffffffffffffffffffff16908173ffffffffffffffffffffffffffffffffffffffff168152505083826080018181525050600082610100019060028111156117b757fe5b908160028111156117c457fe5b815250508690508073ffffffffffffffffffffffffffffffffffffffff166323b872dd3330886000604051602001526040518463ffffffff167c0100000000000000000000000000000000000000000000000000000000028152600401808473ffffffffffffffffffffffffffffffffffffffff1673ffffffffffffffffffffffffffffffffffffffff1681526020018373ffffffffffffffffffffffffffffffffffffffff1673ffffffffffffffffffffffffffffffffffffffff1681526020018281526020019350505050602060405180830381600087803b15156118aa57600080fd5b6102c65a03f115156118bb57600080fd5b5050506040518051905015156118d057600080fd5b8160016000856000191660001916815260200190815260200160002060008201518160000160006101000a81548173ffffffffffffffffffffffffffffffffffffffff021916908373ffffffffffffffffffffffffffffffffffffffff16021790555060208201518160010160006101000a81548173ffffffffffffffffffffffffffffffffffffffff021916908373ffffffffffffffffffffffffffffffffffffffff16021790555060408201518160020160006101000a81548173ffffffffffffffffffffffffffffffffffffffff021916908373ffffffffffffffffffffffffffffffffffffffff160217905550606082015181600301556080820151816004015560a0820151816005015560c0820151816006015560e082015181600701556101008201518160080160006101000a81548160ff02191690836002811115611a1857fe5b021790555090505082600260003373ffffffffffffffffffffffffffffffffffffffff1673ffffffffffffffffffffffffffffffffffffffff16815260200190815260200160002060008873ffffffffffffffffffffffffffffffffffffffff1673ffffffffffffffffffffffffffffffffffffffff16815260200190815260200160002081600019169055507f7ffc675d721b8768e035a323722842743bb523487b535906abc97e6b3e2095d08360405180826000191660001916815260200191505060405180910390a150505050505050565b6000846000600481101515611afe57fe5b602002015160006001600083600019166000191681526020019081526020016000206003015414151515611b3157600080fd5b856000600481101515611b4057fe5b6020020151600280811115611b5157fe5b60016000836000191660001916815260200190815260200160002060080160009054906101000a900460ff166002811115611b8857fe5b14151515611b9557600080fd5b866000600481101515611ba457fe5b602002015160016000826000191660001916815260200190815260200160002060000160009054906101000a900473ffffffffffffffffffffffffffffffffffffffff1673ffffffffffffffffffffffffffffffffffffffff163373ffffffffffffffffffffffffffffffffffffffff161480611c8a575060016000826000191660001916815260200190815260200160002060010160009054906101000a900473ffffffffffffffffffffffffffffffffffffffff1673ffffffffffffffffffffffffffffffffffffffff163373ffffffffffffffffffffffffffffffffffffffff16145b1515611c9557600080fd5b60016000896000600481101515611ca857fe5b6020020151600019166000191681526020019081526020016000209350428460040154856006015401111515611cdd57600080fd5b848460050154101515611cef57600080fd5b611cfa888888610440565b1515611d0557600080fd5b8484600501819055508584600701819055507fa1bc12514c445b1f86e69a272a88710e8e2b296052f16afee3016cc3313a4ffc886000600481101515611d4757fe5b602002015133886040518084600019166000191681526020018373ffffffffffffffffffffffffffffffffffffffff1673ffffffffffffffffffffffffffffffffffffffff168152602001828152602001935050505060405180910390a15050505050505050565b61012060405190810160405280600073ffffffffffffffffffffffffffffffffffffffff168152602001600073ffffffffffffffffffffffffffffffffffffffff168152602001600073ffffffffffffffffffffffffffffffffffffffff168152602001600081526020016000815260200160008152602001600081526020016000815260200160006002811115611e4357fe5b815250905600a165627a7a7230582018ad785e8596dadf9eae714034af9f237835c2beb46d2e5c8d507e0d99806d370029",
  "source": "pragma solidity ^0.4.18;\n\nimport 'zeppelin-solidity/contracts/token/ERC20.sol';\n\n// refactored implementation of:\n// https://github.com/alex-miller-0/eth-dev-101/blob/master/truffle/contracts/TokenChannelsV2.sol\ncontract Channels {\n\n  //============================================================================\n  // EVENTS\n  //============================================================================\n\n  event ChannelOpened(bytes32 id);\n  event ChannelClosed(bytes32 id, uint withChallengePeriod);\n  event ChannelChallenged(bytes32 id, address by, uint value);\n  event ChannelFinalized(bytes32 id, address by, uint value);\n\n\n  //============================================================================\n  // STORAGE\n  //============================================================================\n\n  enum ChannelState { Open, Closing, Closed }\n\n  struct Channel {\n    address sender;\n    address recipient;\n    address token;\n    uint deposit;\n    uint challenge;\n    uint nonce;\n    uint closeTime;\n    uint value;\n    ChannelState state;\n  }\n\n  mapping (address => uint) balances;\n  mapping (bytes32 => Channel) channels;\n  mapping (address => mapping(address => bytes32)) activeIds;\n\n  //============================================================================\n  // MODIFIERS\n  //============================================================================\n\n  modifier validChannel(bytes32 id) {\n    require(channels[id].deposit != 0);\n    _;\n  }\n\n  modifier notClosed(bytes32 id) {\n    require(channels[id].state != ChannelState.Closed);\n    _;\n  }\n\n  modifier onlyParties(bytes32 id) {\n    require(msg.sender == channels[id].sender || msg.sender == channels[id].recipient);\n    _;\n  }\n\n  //============================================================================\n  // PUBLIC FUNCTIONS\n  //============================================================================\n\n\n  /**\n   * Open a new channel with the recipient. Require a non-zero message\n   *\n   * @param token     Address of the token contract\n   * @param recipient Account address of the other party\n   * @param amount    Number of tokens to send\n   * @param challenge Optional challenge period for either party to close the channel\n   */\n  function openChannel(address token, address recipient, uint amount, uint challenge)\n    public\n    payable\n  {\n    // sanity checks\n    require(amount != 0 && amount == msg.value);\n    require(recipient != msg.sender);\n    require(activeIds[msg.sender][recipient] == bytes32(0));\n\n    // create a channel with the id being a hash of the data\n    bytes32 id = keccak256(msg.sender, recipient, now);\n\n    Channel memory newChannel;\n    newChannel.deposit = msg.value;\n    newChannel.sender = msg.sender;\n    newChannel.recipient = recipient;\n    newChannel.token = token;\n    newChannel.challenge = challenge;\n    newChannel.state = ChannelState.Open;\n\n    // make the deposit\n    ERC20 tokenObject = ERC20(token);\n    require(tokenObject.transferFrom(msg.sender, address(this), amount));\n\n    // add it to storage and lookup\n    channels[id] = newChannel;\n    activeIds[msg.sender][recipient] = id;\n\n    ChannelOpened(id);\n  }\n\n  /**\n   * Close a channel. Only the recipient can close it.\n   * The \"value\" is sent to the recipient and the rest refunded to the sender\n   *\n   * @param h     signature with data = [id, message_hash, r, s]\n   * @param v     Component of signature \"h\" from sender\n   * @param value Amount in wei to be sent\n   * @param nonce Number to be hashed with the value to form the message\n   */\n  function closeChannel(bytes32[4] h, uint8 v, uint256 value, uint256 nonce)\n    public\n    validChannel(h[0])\n    notClosed(h[0])\n  {\n    Channel storage channel = channels[h[0]];\n\n    // only recipient may close\n    require(channel.recipient == msg.sender);\n\n    // validate signature data\n    require(verifyMsg(h, v, value));\n\n    if (channel.challenge == 0) {\n      // if there's no challenge period, close the channel\n\n      // pay the recipient and refund the remainder to the sender\n      ERC20 tokenObject = ERC20(channel.token);\n      require(tokenObject.transfer(channel.recipient, channel.value));\n      require(tokenObject.transfer(channel.sender, (channel.deposit - channel.value)));\n\n      // close the channel\n      channel.state = ChannelState.Closed;\n\n      // remove from lookup\n      delete activeIds[channel.sender][channel.recipient];\n\n      ChannelFinalized(h[0], msg.sender, channel.value);\n    } else {\n      // update the channel and allow challenges\n\n      channel.nonce = nonce;\n      channel.value = value;\n      channel.closeTime = now;\n      channel.state = ChannelState.Closing;\n\n      ChannelClosed(h[0], now + channel.challenge);\n    }\n  }\n\n  /**\n   * During the challenge period, either party can submit a proof that contains\n   * a higher nonce\n   *\n   * @param h     signature with data = [id, message_hash, r, s]\n   * @param v     Component of signature \"h\" from sender\n   * @param value Amount in wei to be sent\n   * @param nonce Number to be hashed with the value to form the message\n   */\n  function challenge(bytes32[4] h, uint8 v, uint256 value, uint256 nonce)\n    public\n    validChannel(h[0])\n    notClosed(h[0])\n    onlyParties(h[0])\n  {\n    Channel storage channel = channels[h[0]];\n\n    // make sure we're in the challenge period\n    require(channel.closeTime + channel.challenge > now);\n\n    // make sure the nonce is higher\n    require(channel.nonce < nonce);\n\n    // validate signature data\n    require(verifyMsg(h, v, value));\n\n    // update the channel\n    channel.nonce = nonce;\n    channel.value = value;\n\n    ChannelChallenged(h[0], msg.sender, value);\n  }\n\n  /**\n   * After the challenge period passes, close the channel and disburse the funds\n   *\n   * @param id Channel id\n   */\n  function finalize(bytes32 id)\n    public\n    validChannel(id)\n    notClosed(id)\n    onlyParties(id)\n  {\n    Channel storage channel = channels[id];\n\n    // make sure the challenge period is over\n    require(channel.closeTime + channel.challenge > now);\n\n    // pay the recipient and refund the remainder to the sender\n    ERC20 tokenObject = ERC20(channel.token);\n    require(tokenObject.transfer(channel.recipient, channel.value));\n    require(tokenObject.transfer(channel.sender, (channel.deposit - channel.value)));\n\n    // close the channel\n    channel.state = ChannelState.Closed;\n\n    // remove from lookup\n    delete activeIds[channel.sender][channel.recipient];\n\n    ChannelFinalized(id, msg.sender, channel.value);\n  }\n\n  /**\n   * Verify that the message sent is valid\n   *\n   * @param h     signature with data = [id, message_hash, r, s]\n   * @param v     Component of signature \"h\" from sender\n   * @param value Amount in wei to be sent\n   */\n  function verifyMsg(bytes32[4] h, uint8 v, uint256 value)\n    public\n    validChannel(h[0])\n    constant\n    returns (bool)\n  {\n    address signer = ecrecover(h[1], v, h[2], h[3]);\n    if (signer != channels[h[0]].sender) { return false; }\n\n    // validate that the hash is of the channel id and with the right value\n    bytes32 proof = keccak256(h[0], value);\n\n    if (proof != h[1]) { return false; }\n    else if (value > channels[h[0]].deposit) { return false; }\n\n    return true;\n  }\n\n  //============================================================================\n  // EXTERNAL FUNCTIONS\n  //============================================================================\n\n  function getChannelId(address sender, address recipient)\n    external\n    view\n    returns (bytes32)\n  {\n    return activeIds[sender][recipient];\n  }\n\n  function getChannel(bytes32 id)\n    external\n    validChannel(id)\n    view\n    returns (\n      address sender,\n      address recipient,\n      uint deposit,\n      address token,\n      ChannelState state\n    )\n  {\n    Channel memory channel = channels[id];\n\n    sender = channel.sender;\n    recipient = channel.recipient;\n    deposit = channel.deposit;\n    token = channel.token;\n    state = channel.state;\n  }\n\n  function getChannelStatus(bytes32 id)\n    external\n    validChannel(id)\n    constant\n    returns (ChannelState)\n  {\n    return channels[id].state;\n  }\n\n  function getChannelRemainingChallengePeriod(bytes32 id)\n    external\n    validChannel(id)\n    constant\n    returns (uint)\n  {\n    if (channels[id].closeTime == 0) { return 0; }\n    else if (channels[id].closeTime + channels[id].challenge < now) { return 0; }\n    else { return (channels[id].closeTime + channels[id].challenge) - now; }\n  }\n}\n",
  "sourcePath": "/Users/carlos/Documents/github/state-channels/contracts/Channels.sol",
  "compiler": {
    "name": "solc",
    "version": "0.4.18+commit.9cf6e910.Emscripten.clang"
  },
  "schemaVersion": "1.0.1",
  "updatedAt": "2018-01-22T03:55:28.603Z"
}